:100000000C9435000C945D000C945D000C94B502CA
:100010000C94B5020C94B5020C945D000C945D0038
:100020000C945D000C945D000C945D000C945D00DC
:100030000C945D000C945D000C945D000C945D00CC
:100040000C9413020C945D000C9483020C945D02DA
:100050000C945D000C945D000C945D000C945D00AC
:100060000C945D000C945D00BF0211241FBECFEF05
:10007000D8E0DEBFCDBF11E0A0E0B1E0E8EFF9E0ED
:1000800002C005900D92A831B107D9F722E0A8E18E
:10009000B1E001C01D92A639B207E1F710E0C5E357
:1000A000D0E004C02197FE010E94C604C433D107EA
:1000B000C9F70E941E030C94FA040C940000CF921E
:1000C000DF92EF92FF920F931F93CF93DF936C0118
:1000D0007A018B01C0E0D0E0CE15DF0589F0D801B0
:1000E0006D918D01D601ED91FC910190F081E02D93
:1000F000C6010995892B11F47E0102C02196ECCF2F
:10010000C701DF91CF911F910F91FF90EF90DF908A
:10011000CF900895FC01538D448D252F30E0842F1E
:1001200090E0821B930B541710F0CF96089501971F
:100130000895FC01918D828D981761F0828DDF0109
:10014000A80FB11D5D968C91928D9F5F9F73928FCA
:1001500090E008958FEF9FEF0895FC01918D828DBF
:10016000981731F0828DE80FF11D858D90E008958C
:100170008FEF9FEF0895FC01918D228D892F90E0E4
:10018000805C9F4F821B91098F739927089583E2AA
:1001900091E00E94BB0021E0892B09F420E0822F2E
:1001A0000895FC01848DDF01A80FB11DA35ABF4F34
:1001B0002C91848D90E001968F739927848FA68966
:1001C000B7892C93A089B1898C9180648C93938D8D
:1001D000848D981306C00288F389E02D80818F7D7D
:1001E00080830895EF92FF920F931F93CF93DF9335
:1001F000EC0181E0888F9B8D8C8D981305C0E88978
:10020000F989808185FD24C0F62E0B8D10E00F5FEB
:100210001F4F0F731127E02E8C8DE8120CC00FB604
:1002200007FCFACFE889F989808185FFF5CFCE01F7
:100230000E94D100F1CF8B8DFE01E80FF11DE35A32
:10024000FF4FF0820B8FEA89FB898081806207C0B3
:10025000EE89FF896083E889F989808180648083E1
:1002600081E090E0DF91CF911F910F91FF90EF908F
:100270000895CF93DF93EC01888D8823C9F0EA8934
:10028000FB89808185FD05C0A889B9898C9186FD8F
:100290000FC00FB607FCF5CF808185FFF2CFA8898C
:1002A000B9898C9185FFEDCFCE010E94D100E7CFB7
:1002B000DF91CF91089580E090E0892B29F00E9492
:1002C000C70081110C9400000895089580E090E02B
:1002D00008958F929F92AF92BF920F931F93CF93E7
:1002E000DF93CDB7DEB7A1970FB6F894DEBF0FBE90
:1002F000CDBF19A2423008F44AE08E010F5D1F4FB6
:10030000842E912CA12CB12CA50194010E94A4044F
:10031000E62FB901CA0101501109EA3014F4E05D79
:1003200001C0E95CD801EC93232B242B252B61F72A
:100330000115110571F0F80101900020E9F73197DE
:10034000AF01401B510BB80183E291E00E945F00B6
:1003500002C080E090E0A1960FB6F894DEBF0FBE19
:10036000CDBFDF91CF911F910F91BF90AF909F9024
:100370008F9008950E94CC04CF92DF92EF92FF926B
:10038000CF93DF938091000120E4829FC00111246C
:1003900080937C0080917A00806480937A008091C1
:1003A0007A0086FDFCCF809178002091790090E062
:1003B000922B97FD0396EC01D595C795D595C795DA
:1003C0006C2F83E291E00E94F2006E010D2E000C72
:1003D000EE08FF08D7FF14C0E0912301F09124013B
:1003E0000190F081E02D6DE283E291E009956627AE
:1003F0007727CB016C197D098E099F094AE003C05C
:100400004AE0C701B6010E94690142E050E063E1A1
:1004100071E083E291E0DF91CF91FF90EF90DF9068
:10042000CF900C945F001F920F920FB60F92112481
:100430002F933F938F939F93AF93BF9380911F010F
:1004400090912001A0912101B091220130911E01D3
:1004500023E0230F2D3720F40196A11DB11D05C007
:1004600026E8230F0296A11DB11D20931E01809343
:100470001F0190932001A0932101B093220180914C
:100480001A0190911B01A0911C01B0911D010196D0
:10049000A11DB11D80931A0190931B01A0931C0113
:1004A000B0931D01BF91AF919F918F913F912F917B
:1004B0000F900FBE0F901F9018951F920F920FB6BE
:1004C0000F9211242F933F934F935F936F937F93DA
:1004D0008F939F93AF93BF93EF93FF9383E291E04A
:1004E0000E94D100FF91EF91BF91AF919F918F91A9
:1004F0007F916F915F914F913F912F910F900FBE20
:100500000F901F9018951F920F920FB60F92112403
:100510002F938F939F93EF93FF93E0913301F0918B
:1005200034018081E0913901F0913A0182FD12C0DD
:10053000908180913C018F5F8F7320913D018217E4
:1005400051F0E0913C01F0E0ED5DFE4F958F80931E
:100550003C0101C08081FF91EF919F918F912F917C
:100560000F900FBE0F901F9018951F920F920FB60D
:100570000F9211240F900FBE0F901F90189510929C
:1005800026011092250188EE93E0A0E0B0E0809370
:10059000270190932801A0932901B0932A0185E0B7
:1005A00091E0909324018093230185EC90E0909357
:1005B000300180932F0184EC90E09093320180937E
:1005C000310180EC90E0909334018093330181EC11
:1005D00090E0909336018093350182EC90E0909307
:1005E00038018093370186EC90E090933A01809334
:1005F000390110923C0110923D0110923E0110927F
:100600003F01109293021092920280E290E0909348
:10061000D4018093D3018DE08093D5011092DB014A
:100620001092DA01E1ECF1E0119281E0E13DF8078E
:10063000D9F71092D2011092D1010895789484B51F
:10064000826084BD84B5816084BD85B5826085BDCE
:1006500085B5816085BD80916E00816080936E005C
:10066000109281008091810082608093810080914E
:1006700081008160809381008091800081608093FF
:1006800080008091B10084608093B1008091B000BF
:1006900081608093B00080917A00846080937A00BA
:1006A00080917A00826080937A0080917A008160E4
:1006B00080937A0080917A00806880937A0010920B
:1006C000C100E0913301F091340182E08083E09138
:1006D0002F01F09130011082E0913101F09132014F
:1006E0008FEC808310923B01E0913701F09138014B
:1006F00086E08083E0913501F09136018081806150
:100700008083E0913501F09136018081886080839B
:10071000E0913501F0913601808180688083E0911D
:100720003501F091360180818F7D80831092000128
:100730002091DA013091DB012A30310514F5C2E154
:10074000C29FC001C39F900D112440E150E066E1BB
:1007500071E084529E4F0E94E8048091DA019091EA
:10076000DB01C89FF001C99FF00D1124E054FE4F3A
:100770002CEB31E035A724A701969093DB01809301
:10078000DA0182E1D82E8091920290919302892B16
:1007900039F08091920290919302019749F016C02E
:1007A00083E291E00E94BB001816190694F0F1CF85
:1007B0008091940290919502DC01ED91FC9100846E
:1007C000F185E02D0995181619061CF00E945B01B1
:1007D000DACF8091920290919302892B29F483E2DF
:1007E00091E00E9499000BC0809194029091950233
:1007F000DC01ED91FC910284F385E02D0995809355
:10080000C0019091C0018091D501981342C010920F
:10081000D2011092D10148ED51E063ED71E081EC1D
:1008200091E00E947D047C019093D7018093D601D2
:10083000892B61F2A090DA01B090DB010CED11E0A0
:10084000C0E0D0E0CA15DB050CF04AC040E150E042
:10085000B801C7010E94DA040E5E1F4F892BB9F45C
:10086000DC9EF001DD9EF00D1124E054FE4F04A447
:10087000F5A5E02D0995E1ECF1E01192B1E0E13D43
:10088000FB07D9F71092D2011092D10102C0219634
:10089000D9CFC091C0018C2F0C2E000C990B0E9457
:1008A000D304892B09F46FCF8091D1019091D201AB
:1008B0009C012F5F3F4F3093D2012093D101FC0167
:1008C000E054FE4FC183F901E054FE4F1182203104
:1008D00031050CF458CF1092D2011092D10153CFB0
:1008E000E0919002F09191020995E1ECF1E0119212
:1008F00081E0E13DF807D9F7C5CFFA01A191B081B8
:10090000009719F41097E1F0CD01DC01CD010D90B5
:10091000002011F4C00113C0FB012191222319F022
:100920002015D9F7F3CFFB012191201519F41E9260
:10093000119606C02223C1F70D900020A1F7D00127
:10094000FA01A193B0830895A1E21A2EAA1BBB1B42
:10095000FD010DC0AA1FBB1FEE1FFF1FA217B3078B
:10096000E407F50720F0A21BB30BE40BF50B661FA1
:10097000771F881F991F1A9469F760957095809565
:1009800090959B01AC01BD01CF010895EE0FFF1FB3
:100990000590F491E02D099481E090E0F8940C9496
:1009A000FA04803209F091110C94F70480528F55AB
:1009B000D8F70895FB01DC014150504030F08D9193
:1009C0000190801919F40020B9F7881B990B08953C
:1009D000FB01DC014150504048F001900D92002095
:1009E000C9F701C01D9241505040E0F70895992782
:0809F00088270895F894FFCF59
:1009F8000100000000F2005F008A003901BB009985
:080A080000AD000D0A007200B0
:107E0000112484B714BE81FFF0D085E080938100F7
:107E100082E08093C00088E18093C10086E0809377
:107E2000C20080E18093C4008EE0C9D0259A86E02C
:107E300020E33CEF91E0309385002093840096BBD3
:107E4000B09BFECF1D9AA8958150A9F7CC24DD24C4
:107E500088248394B5E0AB2EA1E19A2EF3E0BF2EE7
:107E6000A2D0813461F49FD0082FAFD0023811F036
:107E7000013811F484E001C083E08DD089C08234E0
:107E800011F484E103C0853419F485E0A6D080C0E4
:107E9000853579F488D0E82EFF2485D0082F10E0AE
:107EA000102F00270E291F29000F111F8ED06801E7
:107EB0006FC0863521F484E090D080E0DECF843638
:107EC00009F040C070D06FD0082F6DD080E0C81688
:107ED00080E7D80618F4F601B7BEE895C0E0D1E017
:107EE00062D089930C17E1F7F0E0CF16F0E7DF06D8
:107EF00018F0F601B7BEE89568D007B600FCFDCFD4
:107F0000A601A0E0B1E02C9130E011968C91119780
:107F100090E0982F8827822B932B1296FA010C0160
:107F200087BEE89511244E5F5F4FF1E0A038BF0790
:107F300051F7F601A7BEE89507B600FCFDCF97BE46
:107F4000E89526C08437B1F42ED02DD0F82E2BD052
:107F50003CD0F601EF2C8F010F5F1F4F84911BD097
:107F6000EA94F801C1F70894C11CD11CFA94CF0C13
:107F7000D11C0EC0853739F428D08EE10CD085E9AC
:107F80000AD08FE07ACF813511F488E018D01DD067
:107F900080E101D065CF982F8091C00085FFFCCF94
:107FA0009093C60008958091C00087FFFCCF809118
:107FB000C00084FD01C0A8958091C6000895E0E648
:107FC000F0E098E1908380830895EDDF803219F02E
:107FD00088E0F5DFFFCF84E1DECF1F93182FE3DFCA
:107FE0001150E9F7F2DF1F91089580E0E8DFEE27F6
:047FF000FF270994CA
:027FFE00040479
:0400000300007E007B
:00000001FF
